:100000000FC0000000000000000000000000000021
:10001000000000001BC00000000000000000000005
:1000200001E01FE50EBF1DBFB99AC19A00E109BFEB
:10003000789400E002BF08E609BD02E00ABD02E0D4
:1000400003BF10E0F0E0E6E72591FFCF103031F07C
:10005000193039F01A3061F0269538F0C1981395AF
:1000600018952591203021F01FEFC19A139518950E
:10007000C19A1AE0189548656C6C6F20776F726CA6
:0400800064210A00ED
:00000001FF
