:100000000EC028C027C071C025C04CC023C022C06C
:1000100021C020C01FC01EC01DC01CC01BC0112499
:100020001FBECFE5D1E0DEBFCDBF10E0A0E6B0E05F
:10003000EAE3F7E002C005900D92AC37B107D9F7BB
:1000400020E0ACE7B0E001C01D92A238B207E1F7B2
:100050000AD371C3D5CFCF93DF93EC0130D3E8E05F
:10006000E81B982F9150DAF0DE011196A90FB11D0F
:100070004E2F50E0EC0FFD2FF11D3196E90FF11DD1
:100080002E9122939150E0F7883021F060E370E0E8
:10009000CE010ED31886CE01DF91CF9108954E2F59
:1000A00050E0F4CF1F921FB61F9211248F939F939D
:1000B000AF93BF9380917D0090917E00A0917F00CF
:1000C000B09180000196A11DB11D80937D00909399
:1000D0007E00A0937F00B0938000BF91AF919F916D
:1000E0008F911F901FBE1F9018951F921FB61F92D1
:1000F00011248F939F9380918100803059F0893033
:10010000A9F090917C0080917C00869580937C0082
:1001100090FD12C0C098809181008F5F8093810014
:100120009F918F911F901FBE1F901895C09A8FEFBF
:100130008093810010BEEFCFC09AEDCFF8948091EC
:100140007D0090917E00A0917F00B091800022B749
:1001500008B604FE02C00196A11D7894BA2FA92FFB
:10016000982F822FBC01CD0108958F929F92AF925C
:10017000BF92CF92DF92EF92FF920F931F93CF9394
:10018000DF93CDB7DEB72F970FB6F894DEBF0FBE63
:10019000CDBFBC9AC4988FE59AEE0197F1F700C0E5
:1001A0000000C49ABC98B499FECFB49BFECFAE01B8
:1001B000455F5F4FFA0185E011928A95E9F796B3A2
:1001C000892F807194FDFBCF20E030E0F901880F8A
:1001D000682FB49BFECFF89480907D0090907E00B5
:1001E000A0907F00B090800072B708B604FE04C0F3
:1001F0008FEF881A980AA80A7894BA2CA92C982C00
:10020000812C86B3182F107184FDFBCFF894C09019
:100210007D00D0907E00E0907F00F090800082B75B
:1002200008B604FE04C09FEFC91AD90AE90A7894F7
:10023000E40FF51F90E0A0E0B0E0871B9040A040E5
:10024000B04088199909AA09BB09FE2CED2CDC2CB9
:10025000C12C8C0D9D1DAE1DBF1D71E082349040E0
:10026000A040B04008F470E0872F862B80832F5F7A
:100270003F4F2832310561F0F901F595E795F59585
:10028000E795F595E795DA01AE0FBF1F8C919FCFEB
:10029000BC9A0B8542E0CE010196BC01802F90E014
:1002A00017D2D9DEDC018C91803019F120E0FD01FC
:1002B00086E807C095B7906295BF889595B79F7DF2
:1002C00095BF90B79111F6CF908190937C0080BF3D
:1002D0002F5FFD01E20FF11D90819111F2CF80B7E8
:1002E000803051F085B7806285BF889585B78F7D56
:1002F00085BF80B78111F6CF8EE280937C0086E8BF
:1003000080BFEC8442E0CE010196BC018E2D90E0CE
:10031000DFD1A1DEDC018C91803019F180E0FD019C
:1003200026E807C095B7906295BF889595B79F7DE1
:1003300095BF90B79111F6CF908190937C0020BF2C
:100340008F5FFD01E80FF11D90819111F2CF80B711
:10035000803051F085B7806285BF889585B78F7DE5
:1003600085BF80B78111F6CF8AE080937C0086E854
:1003700080BFDD8442E0CE010196BC018D2D90E06E
:10038000A7D169DEDC018C91803019F180E0FD019C
:1003900026E807C095B7906295BF889595B79F7D71
:1003A00095BF90B79111F6CF908190937C0020BFBC
:1003B0008F5FFD01E80FF11D90819111F2CF80B7A1
:1003C000803051F085B7806285BF889585B78F7D75
:1003D00085BF80B78111F6CF8EE280937C0086E8DE
:1003E00080BFFE8442E0CE010196BC018F2D90E0DB
:1003F0006FD131DEDC018C91803019F180E0FD019C
:1004000026E807C095B7906295BF889595B79F7D00
:1004100095BF90B79111F6CF908190937C0020BF4B
:100420008F5FFD01E80FF11D90819111F2CF80B730
:10043000803051F085B7806285BF889585B78F7D04
:1004400085BF80B78111F6CF8AE080937C0086E873
:1004500080BFCF8442E0CE010196BC018C2D90E09C
:1004600037D1F9DDDC018C91FD0126E8803011F1F6
:1004700080B7803051F095B7906295BF889595B759
:100480009F7D95BF90B79111F6CF808180937C00BE
:1004900020BF1F5FFD01E10FF11D80818111E8CFB9
:1004A00080B7803051F085B7806285BF889585B769
:1004B0008F7D85BF80B78111F6CF8AE080937C0065
:1004C00086E880BF0E0D0D0D0F0DC01208C034C0A0
:1004D00085B7806285BF889585B78F7D85BF80B7DA
:1004E0008111F6CF8AE080937C0086E880BF80B7D8
:1004F000803051F085B7806285BF889585B78F7D44
:1005000085BF80B78111F6CF8AE080937C0086E8B2
:1005100080BF2F960FB6F894DEBF0FBECDBFDF9120
:10052000CF911F910F91FF90EF90DF90CF90BF90F0
:10053000AF909F908F900895FE2889F688B392E03F
:10054000892788BB90E0E0E6F0E026E807C085B7A1
:10055000806285BF889585B78F7D85BF80B7811103
:10056000F6CF808180937C0020BF9F5FE92FF0E071
:10057000E05AFF4F80818111F1CF8B854AE09E01C7
:100580002F5F3F4FB90190E0A3D0DC018C91803008
:1005900009F180E0FD0126E807C095B7906295BF9C
:1005A000889595B79F7D95BF90B79111F6CF9081B3
:1005B00090937C0020BF8F5FFD01E80FF11D9081BB
:1005C0009111F2CF07C085B7806285BF889585B746
:1005D0008F7D85BF80B78111F6CF8AE080937C0044
:1005E00086E880BF90E0ECE6F0E026E807C085B73B
:1005F000806285BF889585B78F7D85BF80B7811163
:10060000F6CF808180937C0020BF9F5FE92FF0E0D0
:10061000E459FF4F80818111F1CF8D854AE09E0121
:100620002F5F3F4FB90190E053D0DC018C918030B7
:1006300009F455CFFD0186E807C095B7906295BFD4
:10064000889595B79F7D95BF90B79111F6CF908112
:1006500090937C0080BFF394FD01EF0DF11D90811C
:100660009111F2CF3CCF82E489BF12BE1ABC82E066
:1006700083BF1FBC80ED8DBD8EBD789487B3836131
:1006800087BB88B3816188BB8FEF99E628E18150F1
:1006900090402040E1F700C0000067DD8FEF93ED50
:1006A00020E3815090402040E1F700C00000F5CFEA
:1006B000DC0101C06D9341505040E0F70895FC010A
:1006C00001900020E9F7809590958E0F9F1F089567
:1006D000BB274A3031F4992322F4BDE290958195ED
:1006E0009F4F01C0BB27FB015527AA27880F991FE1
:1006F000AA1FA41710F0A41B83955051B9F7A05D51
:10070000AA3308F0A95DA193009779F7B111B193CD
:100710001192CB0100C0DC01FC01672F719177239E
:10072000E1F7329704C07C916D9370836291AE17AC
:0A073000BF07C8F30895F894FFCF47
:10073A0048756D6964697479203D200054656D704F
:0C074A0065726174757265203D2000002E
:00000001FF
