:100000000EC01DC01CC03FC01AC01AC018C017C007
:1000100016C015C014C013C012C011C010C01124E6
:100020001FBECFE5D1E0DEBFCDBF20E0A0E6B0E04F
:1000300001C01D92A636B207E1F784D1B8C1E0CF66
:100040001F921FB61F9211248F939F93AF93BF935C
:100050008091610090916200A0916300B091640072
:100060000196A11DB11D8093610090936200A09341
:100070006300B0936400BF91AF919F918F911F90E7
:100080001FBE1F9018951F921FB61F9211248F93A9
:100090009F9380916500803059F08930A9F090914C
:1000A00060008091600086958093600090FD12C092
:1000B000C098809165008F5F809365009F918F91BC
:1000C0001F901FBE1F901895C09A8FEF80936500F8
:1000D00010BEEFCFC09AEDCFDC012C91203079F02B
:1000E00030E086E890B79111FDCF2093600080BF8B
:1000F0003F5FFD01E30FF11D20812111F3CF089532
:10010000603079F0FC01680F792F711D96E880B797
:100110008111FDCF81918093600090BFE617F707B2
:10012000B1F70895F8948091610090916200A091D8
:100130006300B091640022B708B601FE02C00196C8
:10014000A11D7894BA2FA92F982F822FBC01CD0121
:10015000089582E489BF12BE1ABC82E083BF1FBC2F
:1001600080ED8DBD8EBD789487B3836187BB88B3E6
:10017000816188BB0895CF93DF93B49BFECFF89441
:10018000C0916100D0916200E0916300F091640041
:1001900022B708B601FE02C02196E11D7894FE2F19
:1001A000ED2FDC2FC0E0B499FECFF8948091610070
:1001B00090916200A0916300B091640042B708B6CC
:1001C00001FE02C00196A11D789450E060E070E04D
:1001D000421B5040604070404C1B5D0B6E0B7F0B10
:1001E000BA2FA92F982F80E0480F591F6A1F7B1F35
:1001F00081E0433350406040704008F480E0DF917C
:10020000CF910895CF93DF93EC01C8D0E8E0E81BCD
:10021000982F9150DAF0DE011196A90FB11D4E2FE3
:1002200050E0EC0FFD2FF11D3196E90FF11D2E91DD
:1002300022939150E0F7883021F060E370E0CE0126
:10024000A6D01886CE01DF91CF9108954E2F50E0B1
:10025000F4CFCF92DF92EF92FF920F931F93CF9341
:10026000DF9300D000D00F92CDB7DEB7BC9AC49810
:100270008FE59AEE0197F1F700C00000C49ABC9890
:10028000B499FECFB49BFECF6E018FEFC81AD80A87
:10029000F60185E011928A95E9F796B3892F80716E
:1002A00094FDFBCFE12CF12C87010BC08701159544
:1002B00007951595079515950795F601E00FF11F20
:1002C00080810C0D1D1D880FF801808354DFF8011B
:1002D0009081982B90838FEFE81AF80A88E2E8164D
:1002E000F10421F7BC9AC49A89819A81890F9B8174
:1002F000890F9C81890F9D819817E9F0F6019E0175
:100300002A5F3F4F96E880B78111FDCF819180939E
:10031000600090BFE217F307B1F70F900F900F90B6
:100320000F900F90DF91CF911F910F91FF90EF9061
:10033000DF90CF900895903009F388B392E0892739
:1003400088BBDCCF82E489BF12BE1ABC82E083BFC7
:100350001FBC80ED8DBD8EBD789487B3836187BB54
:1003600088B3816188BB8FEF99E628E18150904086
:100370002040E1F700C000006CDF8FEF99E628E134
:10038000815090402040E1F700C00000F5CFDC0133
:1003900001C06D9341505040E0F70895FC01019079
:1003A0000020E9F7809590958E0F9F1F0895F8948F
:0203B000FFCF7D
:00000001FF
